:020000041C00DE
:100800006F0000106F00C00F6F00800F6F00400F6F
:100810006F00000F6F00C00E6F00800E6F00400E63
:100820006F00000E6F00C00D6F00800D6F00400D57
:100830006F00000D6F00C00C6F00800C6F00400C4B
:100840006F00000C6F00C00B6F00800B6F00400B3F
:100850006F00000B6F00C00A6F00800A6F00400A33
:100860006F00000A6F00C0096F0080096F00400927
:100870006F0000096F00C0086F0080086F0040081B
:10088000979100009381C1B5732540F19375F501EF
:100890001581179101001301E111170500001305DF
:1008A00065F613651500731055309782000093822A
:1008B000E239138381DC23A002009102E3ED62FEA2
:1008C00017350000130505F8EF201074EF20707D38
:1008D00002454C000146EF2090686F20B073828083
:1008E0000000000000000000000000000000000008
:1008F00000000000000000000000000000000000F8
:10090000130181F806C216C41AC61EC822CA26CC14
:100910002ACE2ED032D236D43AD63ED842DA46DC6F
:100920004ADECEC0D2C2D6C4DAC6DEC8E2CAE6CC3F
:10093000EACEEED0F2D2F6D4FAD6FED8F3220030C8
:1009400096DA2111F322007C7323107CF323207CA0
:10095000732E407CF32E507C732F607C16C21AC419
:100960001EC672C876CA7ACC83A241D523A02200C3
:1009700073252034F32510341356F50109CA2EC00F
:100980001781000003214125EF20E0170DA89105F4
:100990002EC0AD421375F57F631955001781000015
:1009A00003218123EF10201D19A8F3222034732383
:1009B0001034F3230030D5BFF3222034F5BF03A356
:1009C00041D50321030082427390123492422243A4
:1009D000B243424ED24E624F7390027C7310137C2E
:1009E0007390237C73104E7C73905E7C73106F7CCD
:1009F0006101D652739002309240A2423243C24308
:100A00005244E244724582551256A2563257C2579A
:100A10005258E25872598649164AA64A364BC64B76
:100A2000564CE64C764D865D165EA65E365FC65F1A
:100A30001301810773002030130000001300000031
:100A4000130000001300000013000000130000005A
:100A5000130000001300000013000000130000004A
:100A6000130000001300000013000000130000003A
:100A7000130000001300000013000000130000002A
:100A8000130000001300000013000000130000001A
:100A9000130000001300000013000000130000000A
:100AA00013000000130000001300000013000000FA
:100AB00013000000130000001300000013000000EA
:100AC00013000000130000001300000013000000DA
:100AD00013000000130000001300000013000000CA
:100AE00013000000130000001300000013000000BA
:100AF00013000000130000001300000013000000AA
:100B0000130181F806C216C41AC61EC822CA26CC12
:100B10002ACE2ED032D236D43AD63ED842DA46DC6D
:100B20004ADECEC0D2C2D6C4DAC6DEC8E2CAE6CC3D
:100B3000EACEEED0F2D2F6D4FAD6FED8F3220030C6
:100B400096DA2111F322007C7323107CF323207C9E
:100B5000732E407CF32E507C732F607C16C21AC417
:100B60001EC672C876CA7ACC83A241D523A02200C1
:100B700073252034F32510342EC017810000032183
:100B8000A105EF00706AE30C05E2EF00D07E03A33D
:100B900041D50321030082427390123492422243D2
:100BA000B243424ED24E624F7390027C7310137C5C
:100BB0007390237C73104E7C73905E7C73106F7CFB
:100BC0006101D652739002309240A2423243C24336
:100BD0005244E244724582551256A2563257C257C9
:100BE0005258E25872598649164AA64A364BC64BA5
:100BF000564CE64C764D865D165EA65E365FC65F49
:100C0000130181077300203013000000130000005F
:100C10001300000013000000130000001300000088
:100C20001300000013000000130000001300000078
:100C30001300000013000000130000001300000068
:100C40001300000013000000130000001300000058
:100C50001300000013000000130000001300000048
:100C60001300000013000000130000001300000038
:100C70001300000013000000130000001300000028
:100C80001300000013000000130000001300000018
:100C90001300000013000000130000001300000008
:100CA00013000000130000001300000013000000F8
:100CB00013000000130000001300000013000000E8
:100CC00013000000130000001300000013000000D8
:100CD00013000000130000001300000013000000C8
:100CE00013000000130000001300000013000000B8
:100CF00013000000130000001300000013000000A8
:100D000003A141D50241824092422243B243424E66
:100D1000D24E624F7390027C7310137C7390237CCD
:100D200073104E7C73905E7C73106F7C6101324354
:100D3000C2435244E244724582551256A25632577B
:100D4000C2575258E25872598649164AA64A364B3B
:100D5000C64B564CE64C764D865D165EA65E365FFB
:100D6000C65FD652A10273900230A24213018107DE
:100D70008280130000001300000013000000130025
:100D80000000130000001300000013000000130017
:100D90000000130000001300000013000000130007
:100DA00000001300000013000000130000001300F7
:100DB00000001300000013000000130000001300E7
:100DC00000001300000013000000130000001300D7
:100DD00000001300000013000000130000001300C7
:100DE00000001300000013000000130000001300B7
:100DF00000001300000013000000130000000100B9
:100E0000F322003093F272FF130380181203B3E24F
:100E10006200711523205500130585FA10C12115B4
:100E200023200500994263870200711523200500E5
:100E3000FD12D5BF71150CC18280000000000000BA
:100E40000000B7A7101A93870780C853938781A221
:100E50001375F50F13172500BA97984319C39C43D0
:100E6000828782802A8309CA838305002300730056
:100E70007D16050385056DFA82802A8311C623003D
:100E8000B3007D16050365FE8280C1676376F502B7
:100E90009307F00FB3B7A7008E073797001C930690
:100EA00000029D8E3355F500930747AD3E950345EF
:100EB00005003385A640828037070001C147E36EF5
:100EC000E5FCE147D9BF930785007D575CC118C594
:100ED0005CC51CC923200500828023280500828070
:100EE0005C419847DCC198C598474CC38CC71C41EE
:100EF00088C985071CC182809441FD57130785006E
:100F0000639DF6001C49D843D8C10CC79CC5CCC30F
:100F10001C4188C985071CC18280BA875843104389
:100F2000E3FDC6FECDB7544118451C4998C654C3CD
:100F3000D4436393A600D8C39843232805007D17A4
:100F400098C388438280411122C42A8406C6EF10C8
:100F5000E00B005CEF10200DB2401335140022446A
:100F600041018280411126C2B28430414AC0032926
:100F7000850322C406C62A8405E61C41814499E7FC
:100F80000845EF00B06CAA84232404000509232C33
:100F90002403B240224402492685924441018280C2
:100FA00089EC4841C1355C403840BA9718445CC070
:100FB000E3EEE7FC1C405CC0D1BF484565353840D6
:100FC0005C44B306E040998F18405CC463F5E700C9
:100FD0001C44B6975CC489476397F4008144E307D7
:100FE00009FA7D1965B7814455B7AA87B0432E85A4
:100FF00019CAD84794473297D8C76364D700984333
:10100000D8C7CC4785B58280411122C42A8426C224
:101010004AC006C6EF00907F83445404130944027B
:10102000E204E184634B9002FD57A302F404EF0055
:10103000907FEF00B07D8344440413090401E2046F
:10104000E18463489002FD572302F4042244B24035
:101050009244024941016F00107D5C50F1D74A85EE
:10106000EF00504719C1EF007051FD14E204E18414
:1010700055BF1C48E9DB4A85EF00D04519C1EF0098
:10108000F04FFD14E204E1846DBF411106C622C495
:1010900026C20DE1B786001C3786001C3785001C70
:1010A0009386060013060639930530101305850054
:1010B000EF2080712A84AE84EF00507534405C5C70
:1010C0001840232C0402B387F60258C03306F700F9
:1010D000958FBA975CC4FD572302F40410C4A30291
:1010E000F40495E01C4881CB13050401EF00903E09
:1010F00019C173000000EF001073B2402244924403
:1011000005454101828013050401753B1305440226
:101110005D3BD5B7011106CE22CC26CA4AC84EC6C1
:101120000DE1B786001C3786001C3785001C9386AE
:10113000C6041306C6379305601713058500EF2014
:10114000A0682A893305B502AE84B2891305050566
:10115000EF10B0012A8411CDAA8799C09307050525
:101160001CC0232E240324C085452285393F230635
:101170003405F24022856244D2444249B2490561B5
:101180008280411106C622C40DE1B786001C378655
:10119000001C938606071306C6359305E02C378599
:1011A000001C13058500EF2020622E84637DB500AE
:1011B000B786001C3786001C938606081306C635C2
:1011C0009305F02CE9BF09468145A93711C100DD1F
:1011D000B240224441018280397106DE22DC26DAE7
:1011E0004AD84ED652D456D25AD032C60DE1B7861E
:1011F000001C3786001C9386060013068634930570
:10120000A02E3785001C13058500EF20E05B2A84A3
:10121000AE89368991ED3C4181CFB786001C378677
:10122000001C9386060A130686349305B02ED1BFA0
:1012300089476311F902585C8547630DF700B7864B
:10124000001C3786001C9386860F13068634930590
:10125000C02E45BFEF001033AA8411EDB24789CFED
:10126000B786001C3786001C9386861413068634C6
:101270009305F02E79B78144894A7D5A130B0401F6
:1012800095A8B24789E7EF00105A014561A881E4AB
:101290002808EF00D02DEF001059EF00C077EF00C5
:1012A000F05683474404E207E18763944701230231
:1012B000040483475404E207E18763944701A302CF
:1012C0000404EF0050566C002808EF10E0183DEDC4
:1012D000EF00D053185C5C5C6310F706EF00B0546D
:1012E000B2455A85EF0030162285393BEF100006D3
:1012F00039C98544EF009051185C5C5C6364F70069
:10130000E31159F94A86CE852285A9395C5089C7EF
:1013100013054402EF00101C19C173000000EF0018
:1013200090500545F2506254D2544259B259225A53
:10133000925A025B21618280EF00F04E2285E931F2
:10134000EF10C0007DB77300000065B722856D39CE
:10135000EF00D07F1DBF011106CE22CC26CA4AC89D
:101360004EC60DE1B786001C3786001C938606002A
:101370001306C6329305C03B3785001C1305850054
:10138000EF20804432892A84368691ED3C4181CF1A
:10139000B786001C3786001C9386060A1306C632E1
:1013A0009305D03BD1BF09475C5C6310E60205475B
:1013B000638DE700B786001C3786001C9386860F76
:1013C0001306C6329305E03B45BF185C6366F70021
:1013D000894701456311F602834454041C5C22854D
:1013E00093998401413693D98941FD576397F90256
:1013F0005C5089EB0545F2406244D2444249B2490F
:101400000561828013054402EF00D00C65D5E3032B
:1014100009FE85472320F900F1BF8504E204E18439
:10142000A3029404C1BF411106C622C40DE1B786D0
:10143000001C3786001C9386060013068631930530
:1014400040463785001C13058500EF20E037384102
:10145000AA8701CFB786001C3786001C9386C61961
:101460001306863193058046E9BF18412E8411EF9B
:10147000184501CFB786001C3786001C9386861B53
:10148000130686319305D0466DBF945FD85F014542
:1014900063FFE60003C75704850694DF1316870130
:1014A0006186FD566312D602D85311E70545B24056
:1014B00022444101828013854702EF00B0017DD5AF
:1014C00075D485471CC0DDB7050762076187A38215
:1014D000E704E9BF397106DE22DC26DA4AD84ED6A7
:1014E00052D456D232C60DE1B786001C3786001C96
:1014F0009386C62113068630930540503785001C1D
:1015000013058500EF20402C2A842E8991ED3C4163
:1015100081CFB786001C3786001C9386862213066F
:10152000863093058050D9BFEF00D005AA8411ED15
:10153000B24789CFB786001C3786001C9386861475
:10154000130686309305D05055BF81447D5A930AC7
:101550004402BDA0B24789E7EF00F02C014549A83D
:1015600081E42808EF00B000EF00F02B6D21EF00C0
:10157000F02983474404E207E1876394470123028B
:10158000040483475404E207E18763944701A302FC
:101590000404EF0050296C002808EF00F06B3DE5D3
:1015A0002285EFF05F9A31CDB2455685EF00A069F4
:1015B0002285993CEF00905919E1730000008544A1
:1015C000EF00D02483298403E38609F8CA852285A5
:1015D000FD19213C232C34031C4881CB1305040145
:1015E000EF00406F19C173000000EF00D0230545E4
:1015F000F2506254D2544259B259225A925A21613D
:10160000828022851134EF00705455BF2285ED3A57
:10161000EF00D0532285EFF01F9355D181B7397178
:1016200006DE22DC26DA4AD84ED652D42EC60DE18A
:10163000B786001C3786001C9386C6211306C63C5D
:10164000930550593785001C13058500EF20C017FE
:101650003C412A8481CFB786001C3786001C9386C4
:10166000C6191306C63C93059059E9BFEF00807177
:101670002A8919EDB247814491CFB786001C37867D
:10168000001C938686141306C63C9305E0595DBF83
:1016900081440149FD59130A440269A8B24785E310
:1016A00081CCB786001C3786001C9386462813061B
:1016B000C63C9305505E79B7EF00F01655A0631550
:1016C00009002808EF00A06AEF00F015A926EF0036
:1016D000F01383474404E207E18763943701230250
:1016E000040483475404E207E18763943701A302AB
:1016F0000404EF0050136C002808EF00F05541E19E
:101700002285EFF05F8435C51C4089EBEF00101097
:101710000844EF006068AA84EF00F010B2455285DB
:101720001D232285EFF05F8EEF00504219E1730018
:1017300000000549EF00900D1C5CADD3FD171CDCCB
:101740001C4081E7EF00705C08C41C4899C7130572
:101750000401492319C173000000EF00D00C854437
:10176000F25062544259B259225A2685D25421610C
:1017700082802285EFF05F89EF00503D5DBF2285BA
:10178000EFF09F88EF00903C2285EFF0CFFB55D122
:10179000E1D8EF00B0074C5089C51C5895459C43D3
:1017A0009D8D08448144EF008077EF00D0074DBF46
:1017B000011106CE22CC26CA4AC84EC652C40DE13B
:1017C000B786001C3786001C938606001306463B2E
:1017D0009305F06F3785001C13058500EF10D07E50
:1017E0002A84328991ED3C4181CFB786001C37862F
:1017F000001C9386462B1306463B93050070D9BF09
:1018000083298403014563840902834444042285B7
:10181000EFF0AFFD139A8401FD19135A8A41232C6E
:101820003403FD576317FA021C4891EB0545F2405B
:101830006244D2444249B249224A0561828013057A
:101840000401492965D5E30309FE85472320F900F2
:10185000F1BF8504E204E18423029404C1BFB79779
:10186000001C938687C40147938787C4214603A839
:101870000600631708000E07BA978CC3C8C382809E
:101880000507A106E315C7FE8280B797001C938663
:1018900087C40147938787C42146CC426399A5003A
:1018A0000E07BA9723A0070023A20700828005072E
:1018B000A106E314C7FE8280411106C622C40DE1D1
:1018C000B786001C3786001C3785001C93860600EF
:1018D0001306463A9305B07B13058500EF10D06ED2
:1018E0002A84653722852244B24041016F10600A84
:1018F000411122C426C24AC02A8406C6AE84328957
:10190000EF00C070834744047D57E207E18763948A
:10191000E70023020404834754047D57E207E1876C
:101920006394E700A3020404EF00E06F1C5C91E7FE
:101930004A86A68513054402812E22852244B240A0
:101940009244024941016FF02FEC011126CA4EC6A4
:1019500083A981D8938741D5984322CC2A84884390
:101960004AC806CEA302074811052E89EFF0AFDB67
:10197000938741D509ED9843938601D74C57904200
:1019800005473317B7001347F7FF718F98C27D578C
:101990006310E402630E09008C436244F240D244B7
:1019A0004249B24991051385C19405616FF04FD347
:1019B00098434E9440C3637E340103A5C1D562446D
:1019C0008C43F240D2444249B249910505616FF01F
:1019D000AFD203A581D58C439105EFF0EFD193876A
:1019E00081D798436373E40080C3F2406244D244D9
:1019F0004249B24905618280138781D51C439443D3
:101A0000938781D781E67D5798C3828018435847D2
:101A100058475843D5BF938781D69843050798C345
:101A2000828003A581D8828083A781D6797106D66A
:101A300022D426D24AD04ECE52CC56CA5AC85EC6FE
:101A400062C466C26AC063910712938781D803AAF1
:101A50000700050A23A0470163140A04938781D570
:101A60009843184315C3B786001C3786001C85654C
:101A70003785001C9386C6421306C65C938595AADB
:101A80001305853EEF1050541387C1D5944310437E
:101A900090C314C39387C1D79843050798C3A93F40
:101AA000938781D79C43B794001C938981D79384F3
:101AB00084C8938A41D501446371FA0483A70A005C
:101AC0005147DC57B387E702BE949840854763F3DC
:101AD000E700054483A7C1D891C30544B2502285CD
:101AE000225492540259F249624AD24A424BB24BB2
:101AF000224C924C024D45618280054CD14C93871B
:101B000081D59843184309E7FD5723A0F9007DB715
:101B10009C43DC4703A9C70083274900E367FAFE1B
:101B2000130D49006A85EFF00FC08327890289C72A
:101B300013058901EFF02FBF0325C902138701D7D1
:101B40001443B317AC0033059503D58FEA851CC346
:101B50002695EFF0EFB883A70A000327C902DC57E8
:101B6000E36FF7F8054461BF938701D898430144B8
:101B7000050798C3A5B703A781D69387C1D801C726
:101B8000054798C38280411122C406C623A00700DE
:101B9000938741D59C4337A7A5A51307575A9C5B4C
:101BA000138441D59043631BE600D4436398C60079
:101BB00098476315D700DC476388E70008400C406E
:101BC00093854503EF10805D03A501D7EFF0EFABE0
:101BD0007D473305A740D147B307F5023797001C6F
:101BE000930687C8130787C8BE96904215E2B7864A
:101BF000001C3786001C85653785001C9386464A85
:101C00001306865B938515BE1305853EEF10D03B0A
:101C1000D042A107BA975042D0C26314F6005C428A
:101C2000DCC2D1473305F502B2402A975C433797AF
:101C3000001CDC471CC01C402244938787052322DC
:101C4000F7C441018280411106C622C415E1B7865E
:101C5000001C3786001C85653785001C9386C64EA0
:101C60001306065A9385A5BF1305853EEF10D035A0
:101C70002E8483A541D5E105EFF00FA822852244EB
:101C8000B24085454101D1B1411106C622C426C2E8
:101C900015E1B786001C3786001C85653785001C5A
:101CA0009386C64E13064667938555C21305853E37
:101CB000EF1090312E8483A541D5B284E105EFF079
:101CC0002FA291C07D5422852244B240A685924421
:101CD0004101A5B95C45011122CCC04706CE15E0F3
:101CE000B786001C3786001C85653785001C9386E7
:101CF000864F13068665938555C51305853EEF10FF
:101D0000B02C930584012E852EC6EFF0CFA183A7BA
:101D100081D6B245B1EB930544002E852EC6EFF077
:101D20008FA04854138701D714438547B397A70062
:101D3000D58F1CC3D1473305F502B245B797001CB8
:101D4000938787C83E95EFF0AF9983A741D5585444
:101D50000145DC5763F6E700054723A6E1D80545B2
:101D6000F24062440561828013858193E9BF83A7B5
:101D7000C1D71CC183A781D85CC18280054723A637
:101D8000E1D8828083A741D8054591C703A581D6B4
:101D9000133515000605828045C9011126CA13872F
:101DA00041D514435C5522CCD45606CE4AC82A8469
:101DB000938441D563F4D708184D634707009840D2
:101DC00054571547158F18CDD146B387D70237958D
:101DD000001C130785C8130985C8BA975848631BA8
:101DE000F704930544002E852EC6EFF0CF93B2453D
:101DF000138701D711E9505414438547B397C7009F
:101E000093C7F7FFF58F1CC39C401443C857854701
:101E1000B397A700D58F1CC3D14748D43305F5022B
:101E20004A95EFF0EF8B0545F2406244D2444249B7
:101E3000056182809C40DC575CD4F5B71C4328497F
:101E4000DC573335F500CDB70145828001E9014506
:101E500082800145F24062440561828083A741D5BA
:101E6000011122CC06CE2A846382A702B786001C09
:101E70003786001C85653785001C938686501306BF
:101E80008662CD051305853EEF101014FC4B8DE3E3
:101E9000B786001C3786001C85653785001C938635
:101EA000065213068662D1051305853EEF10D01148
:101EB00054553849FD177CC9E38DE6F8D9FB9305E5
:101EC00045002E852EC6EFF00F863796001CB245D2
:101ED000130686C8138701D705E14854D146B306D7
:101EE000D502B2969C4289EB14438547B397A7006D
:101EF00093C7F7FFF58F1CC33C48954608439D8E5A
:101F000014CC8546B396F600C98E51453385A70299
:101F10005CD414C33295EFE0BFFC054525BF6306D2
:101F2000050E7449011122CC06CE26CA2A8495E2F8
:101F3000B786001C3786001C85653785001C938694
:101F4000065213064660938525061305853EEF105D
:101F5000B0073C4963F3B700AE8758546302F70AF1
:101F60000546639FC60883A641D563938602B7865C
:101F7000001C3786001C85653785001C93868653B8
:101F8000130646609385D5071305853EEF10D003F1
:101F9000144C5CD463C606009546B387F6401CCC4F
:101FA000D1463307D7023795001C930785C89304A1
:101FB00085C83E975C486395E704930544002E85E9
:101FC0002EC6EFE05FF65454B245138701D709E9F6
:101FD00010438547B397D70093C7F7FFF18F1CC312
:101FE00051453385A602104385476244B397D70015
:101FF000F240D18F1CC32695D24405616FE05FEE9D
:10200000F2406244D2440561828082807370043061
:1020100083A741D881CB938741D594439C43F84211
:102020000507F8C2828083A741D899CF938741D50D
:102030009843784311CB94439C43F8427D17F8C2F0
:10204000FC4399E373600430828079714ECE93191A
:1020500026005AC82A8B4E8526D24AD056CA5EC65A
:1020600006D622D452CC62C4AE84B68B3A89BE8ADC
:10207000EF00B00F0DC92A8A13058048EF00F00E5B
:102080002A8419CD232845034E869305500A52858C
:10209000EFE0BFDE032C040389E8230A040235A025
:1020A0005285EF00100F7D5549AAA685930744037A
:1020B00093860401038705002380E70009C785058F
:1020C0008507E399D5FEA3010404914763F3270133
:1020D0001149130A4400528523262403232824058A
:1020E000232A0404EFE07FDF13058401EFE0FFDE25
:1020F0001547B30427412320044813068042814535
:1021000000C804CC40D02322040423020448130551
:102110008405EFE09FD6930744347CCC9307C43A00
:102120003CD00547930744417CD02320E4108147ED
:102130003737CDAB2322F4101307E7309307041091
:1021400098C737176DE613074723D8C737E7050049
:102150001307C7EEF11998CBE299AD47231AF41093
:10216000A30204485E86DA8513F509FFEFE05FC934
:1021700008C063840A0023A08A00493D938701D6E2
:102180009843B794001C050798C3138741D518439B
:10219000138941D5938984C8631D070A23208900C8
:1021A000984385476318F704938484C8938A490643
:1021B0002685D104EFE03FD1E39C9AFE938A0191FA
:1021C00013850191EFE03FD09384419213854192B2
:1021D000EFE07FCF13858193EFE0FFCE138501966B
:1021E000EFE07FCE1385C194EFE0FFCD23AC51D556
:1021F00023AE91D41387C1D61C434854D28585079A
:102200001CC3138701D714433CC48547B397A70069
:10221000D58F1CC3D1473305F5024E95EFE05FCC57
:10222000193583A741D8054589CB83270900D8579D
:102230005C546374F70073000000B250225492544F
:102240000259F249624AD24A424BB24B224C456192
:10225000828083A741D8D9FF832709005854DC57CF
:10226000E36AF7F82320890071B7B785001C37258A
:10227000001C4111938741D701478146130600197D
:10228000938505551305652F22C406C60544753B85
:10229000631B85023526631885027370043083A79B
:1022A00041D53797001C2244938787052322F7C422
:1022B0007D5723ACE1D623A2A1D8B24023A401D8F4
:1022C00041016F008065FD576313F502B786001C5E
:1022D0003786001C85653785001C93868655130656
:1022E000065F9385A5821305853EEF10E04DB24051
:1022F000224441018280011126CA4EC652C406CE34
:1023000022CC4AC893840196138941D683270900B9
:10231000E5DFED39DC44C04713054400EFE0BFC002
:10232000138701D61C43FD171CC383270900FD1723
:102330002320F900CD3913058405EF10903C08588F
:10234000EF0020652285EF00C0647DBF397122DC7B
:10235000138481D61C4006DE26DA4AD84ED652D4E3
:1023600056D25AD05ECE95E3B786001C3786001C45
:1023700085653785001C9386C6561306065E9385D1
:1023800095891305853EEF102044EFF03FC81C40AF
:10239000FD171CC01C408DC301452AC6EFF0BFC805
:1023A000F25062543245D2544259B259225A925A8A
:1023B000025BF24B2161828083A701D6F1DF37995E
:1023C000001C0144938481938549130989C8D14A2B
:1023D000B1A0DC44C04713058401EFE0DFB49305EE
:1023E00044002E852EC6EFE01FB44854138701D752
:1023F0001443B397A90033055503B245D58F1CC3C9
:102400004A95EFE0FFAD938741D59C435854DC5784
:102410006366F7009387C1D823A037019C40D5FBA2
:1024200019C0EFF06FDD138701D80443138401D87E
:1024300089CC8549EFF04FDF09C59387C1D823A028
:102440003701FD14E5F82320040083A7C1D8A9D7DC
:1024500073000000054591B7011106CE22CC26CAB3
:1024600015E1B786001C3786001C856593864658A3
:10247000130606649385E5CC3785001C1305853E5D
:10248000EF1080342E8489EDB786001C3786001C3F
:10249000856593860659130606649385F5CCE9BFD6
:1024A000AA84EFF0BFB6138741D583A681D81C4319
:1024B00083C7574891C71C43A3820748054515A801
:1024C0001C407D5701456386E70203A6C1D78C40B7
:1024D000D8406385C500054563FDE6003386E640C8
:1024E0006372F602958FBA9726851CC0EFF03F887D
:1024F00001452AC6EFF03FB3F24062443245D24470
:10250000056182802320040055BF138741D51843FD
:10251000938741D509C79443F84A0507F8CA884309
:102520008280411122C406C626C24AC01384C1D982
:10253000EFF0DFAD1C4095EF13894197138541976C
:10254000EFE07F989384819813858198EFE0BF979F
:1025500023A821D90146C145114523AA91D8EFE00E
:102560007FBB08C019C5B785001C93854569EFF08E
:102570000FAF2244B2409244024941016FF0BFAA1A
:10258000411106C64CC108C9AA876361B602184D3D
:10259000158E05456379E6009385470003A541D96B
:1025A000EFE09F950145B240410182806375D600FE
:1025B0000545E3FAD5FE9385470003A501D9CDB7BC
:1025C000411106C6B93F83A7C1D98DE3B786001C68
:1025D0003786001C3785001C9386C6691306067B68
:1025E000930530111305456AEF10001EB785001CD6
:1025F0003725001C938701DA11478146130600191D
:102600009385856E13054575EFF03FA461D1B24007
:1026100041018280011106CE22CC26CA0DE1B78687
:10262000001C3786001C3785001C9386066F130636
:102630000675930520181305456AEF10E0181384FA
:10264000C1D9BA841840AA87014505C73EC42EC027
:1026500032C2954763C4B702EFF0CFF22A878947A9
:102660000840814626866303F70001468A85EFE02D
:10267000BFB6F2406244D244056182803688428609
:1026800081468A853A85EFE01FCDE5B7797126D27C
:102690004AD04ECE06D622D452CC56CAAA89EFF0E2
:1026A0004FB883A781D9AA84138981D96371F50AA8
:1026B000138A01D903270A001C4395E7938741D960
:1026C000944398C385472320DA0023A0F900B25031
:1026D000225423209900F2490259624AD24A26859F
:1026E0009254456182805C47C04790439305440003
:1026F0002E8532C62EC4EFE01F831C5022858297A0
:1027000083478402A2453246918BDDD31C4CB2979D
:102710006379F60003250A005CC000C8EFE0CFFD36
:1027200041BF0147814681452285ED3551F1B7868C
:10273000001C3786001C3785001C9386866F1306A5
:10274000C6799305D0391305456AEF10E00723A039
:102750000900B5BF5D71CAC03789001C4EDE56DA6C
:1027600086C6A2C4A6C252DC5AD85ED613098972A4
:1027700083A701D9938B01D90544844381C4DC47E5
:1027800001448443EFF02FA908080937C2472A8B78
:10279000138AC1D9F9E345E06364950AEFF01FBBE2
:1027A00083A70B00DC47C04713054400EFE0AFF7F9
:1027B0008347840213F7470021C30C4CA6865A8630
:1027C000A6952285EFF0DFDB1DC9014781462686ED
:1027D00081452285813505E5B786001C3786001CBA
:1027E0009386866F13064678930510213785001C63
:1027F0001305456AEF00507DF99B2304F4021C5039
:1028000022858297A54403250A0001460C08EFE0C3
:102810007FCC39DDC247624563C4070462445C482B
:10282000B9E76800A535C2472A86E3EEF4FC8A07BB
:10283000CA979C43828783A741D9804313341400ED
:1028400003250A002286B3856441EFF06F8AEFF01A
:10285000FFAF4DF97300000075B7EFF03FAF5DB704
:10286000D247F2458297C247E3CF07F845BF130529
:102870004400EFE04FEB75B7834784020C4C228590
:1028800093E717002304F402D246B695EFF05FCF2A
:102890003DD91C502285829783478402918BA5D70E
:1028A0001C4C5246014781463E9681452285EFF0F9
:1028B0007FD631F9B786001C3786001C9386866F59
:1028C000130686769305C03215B783478402F99BB9
:1028D0002304F4020DBF8347840293E71700230407
:1028E000F402D2450CCC81EDB786001C3786001C63
:1028F000938606701306867693054034C5BDAA8676
:10290000AA952285EFF0DFC7FDBD8347840213F748
:10291000270055FF2285B528FDB5011106CE02C658
:10292000F32750303EC6B7A7011C9387079BBD8B8A
:102930008DC3B786001C3796001C3785001C938614
:10294000867C130646849305900A1305C57EEF0026
:10295000B067712A85679387078073A04730EFE0DF
:102960002FBAF240014505618280011106CE22CCCA
:102970002AC6EFF04F8A3245EF0010792A84EFF033
:10298000FF9C19E0EF001000F240228562440561CF
:102990008280011106CE2AC611C9EFF0CF873245D9
:1029A000EF005077F24005616FF05F9AF2400561E9
:1029B00082807D558280B70700805D8DB747101AF1
:1029C0009387070A88C373005010F5BF8967DCC17D
:1029D00001458280054582807D1513351500828072
:1029E000594723A0E1DC7D55828001458280014565
:1029F00082807D1585473388C50063EBA700896613
:102A0000938606F837F5101A639A0501328582809D
:102A10001307800523A0E1DC7D558280850583C8EE
:102A2000F5FF732740F1F32740F10E078A0713776C
:102A3000F70FF58F2A97BA9723A01701F1B7B79729
:102A4000001C9387C7C32A878843B796011C9386C7
:102A5000061B2A976367D700314723A0E1DC7D5529
:102A6000828098C382806FE01FFB6FF03F8E6F0003
:102A7000B069411106C6EFE03FFB09C5B240410114
:102A80006FF06F8FB2404101828041118145014555
:102A900006C6EF00E07C81450545EF00607C81457E
:102AA0000945EF00E07BEF0070093737001C938782
:102AB000C199130727A798D73717001C130727E4D6
:102AC000B8D7EF0090086945EF00D00BB240410144
:102AD0006F00700641118145014506C6EF00007583
:102AE000B240B797001C23A0A7C4410182804111C6
:102AF0001305000206C6EF009001B2401305004026
:102B000041016F0090027D89931725001385C199BB
:102B10003E951C418287B7979800938707681CC130
:102B20009307F00F23120500232405002326050038
:102B30002318F50082804C41210549AE4C410845DF
:102B400001AB084549A45971A2D42A84280886D625
:102B50002EC632C436C2EF00500E92462246B2450F
:102B600038082285F93F2808EF00F0142808EF0004
:102B70005011B650265465618280084515A25971DE
:102B8000A2D42A84280886D62EC632C436C2EF00C4
:102B9000D00A92462246B24538082285F93F2808D5
:102BA000EF0070112808EF00D00DB6502654656173
:102BB0008280737504308280731005308280737751
:102BC0000430D4415C4148CA14CE94459C4354CE51
:102BD000944150D214D2D4492320060414D69443ED
:102BE00099E690C3D0C37310073001458280D44367
:102BF000B0C2CDBFF3270030F37604301C418843C8
:102C000011C5384198C319E323A207007390063019
:102C10008280484109C5834785036393B70082805A
:102C20000841CDBF5C413E8789CB03C687039443EF
:102C30006316B60014C323A0070082803E87B687C0
:102C4000E5B75C41C8C19CC18280411122C42A847D
:102C5000094506C6EF00A0696370A4029307F4FF5C
:102C6000AA9733D587029377150091C3050505818F
:102C7000B2402244410182800145DDBF9307F00F3D
:102C800063EFA700935755003767101A11078A079B
:102C9000BA97944305473315A700558D88C38280A2
:102CA0001D71DAC0032B4500CAC85EDE86CEA2CCF9
:102CB000A6CACEC6D2C4D6C2C16783444B01832BF9
:102CC0008500328963F4C700EF00102F2A842E8A12
:102CD000B6893AC6EFF0FFED034894033246AA8A5C
:102CE000630E08008347A4030547C148B337F000CB
:102CF0006308E80009489308000219A08147A14829
:102D00000327CB0055E783478403370700102326AA
:102D10007401D98F1387F8FFB35819031CC893F7B0
:102D2000C900F11793B717004207EE07D98F37078D
:102D30000070D98F93F93900FD18B3E717015CC80B
:102D400085476383F906B707009085071CCC3727B2
:102D5000101A938714001307070806089E072326F6
:102D6000CB0023240B0013680801BA9723A0470166
:102D70001D09135939009387070023A2270123A4B3
:102D80000701310480D34147D8D3514798D76644CF
:102D9000F640D6444649B649264A064BF25B56856C
:102DA000964A25616FF05FE1B70700908D0779BF04
:102DB0002C08228552CE4ECC4AD05ED23ED402D6CA
:102DC000EFF0FFDFE9B7832E4500797106D622D4F4
:102DD000B2883A86416783C74E0103288500637431
:102DE0001701EF00701D73740430034395036309EA
:102DF000030A0347A503054E3337E0006315C30BF1
:102E0000414E03AFCE0063180F0A03478503232604
:102E10000501370800103367070118C91307FEFFC3
:102E200033DEC80313F8C6007118133818004207C0
:102E30006E083368E800370700603368E8008D8A61
:102E400005477D1E3368C801232A05016381E60614
:102E5000B7060090850685073727101A14CD13078B
:102E600007089E0723A6CE0023A40E00BA973105BB
:102E70009387070088D34147D8D3514798D7060393
:102E8000136303018CCB9D0893D8380023AA170144
:102E900023AC670022852254B25045616FF0DFD128
:102EA0000147214EB9BF0943130E000299BFB7066F
:102EB00000908D064DB72EC685472C0036C446C8F7
:102EC00042CA3ACC3ECEEFF09FCFE9B7011122CCF7
:102ED0004EC652C42E8406CE26CA4AC856C22A8A74
:102EE000EFF03FCD830714010547AA898507B31783
:102EF000F700B726101A9042D18F9CC20305140127
:102F000093172500138577009307F00F63E0A7025E
:102F100093575500B766101A91068A07B6979443DF
:102F20003317A7001347F7FF758F98C3B735001CF9
:102F300093856510492103051401B735001C93855D
:102F400085140A051505852903051401B735001CEC
:102F50009385651605050A05B929830A14011389A5
:102F600041DA93972A003E99832409009DE8614540
:102F7000EF009019AA842320A9002322050023240E
:102F800005002326050023280500232A05002145E6
:102F9000EF00901788C02320050023220500238A14
:102FA00054019C48268585079CC883050401EFF0E1
:102FB0005FC62320AA0041E90840EFF01FC9AA8A92
:102FC0001305C003EF0050142A8911ED4E85EFF070
:102FD000BFBE7955F2406244D2444249B249224AC6
:102FE000924A056182809307F00F63F757014E857F
:102FF000EFF09FBC7555F9BF81451306C003EFD0B4
:10300000DFE71C408346540018442326F902230DB1
:10301000D9025C44834644002328E902232AF902AA
:10302000A30CD902A607834604012207D98FB3E770
:103030005701230CD9022324F90023202A01CA8531
:103040002685EFF01FC04E85EFF01FB7014559B739
:10305000411126C2AA8406C622C44AC0EFF07FB539
:10306000C04083C584032A892285EFF0BFBB1C487A
:103070002685FD171CC8B9E783474401138717004D
:103080008547B397E70093C7F7FF3727101A144314
:10309000F58F1CC3034544010A051D05EFF01FBE53
:1030A000034544010A051D05312E834744010840AC
:1030B00013972700938741DABA9723A00700EF0000
:1030C00070052285EF0010052244B24092444A85E3
:1030D000024941016FF05FAE1C5505476399E70057
:1030E00058511451504D0C4D48496FF0DFCD81EBD4
:1030F00058511451504D0C4D48496FF07FBA411151
:1031000006C6EF00606B651593172500138541DA3D
:1031100041113E9522C4004106C61C4495E3484433
:1031200001C9184985476313F7005D2E2326040063
:103130002285EFF03FAC09C52244B240410169BF8E
:10314000B240224441018280411122C42A847199F3
:10315000050506C6EFF09FB2135524002244B24085
:10316000190541014DB7411122C42A84719906C63F
:10317000EFF0DFB0135524002244B240190541019D
:103180006FF07FF8411106C6737004303795001C4C
:1031900013058585EF00F053029001A0411106C68A
:1031A000737004303795001C1305C587EF0070520B
:1031B000029001A0411126C24AC006C622C4AA84B8
:1031C0002E89737404302E85EFD03FCC9307E5FF32
:1031D000858391E3854713974400B706101ABA9682
:1031E000D8424176798E3317F9003D8342074183F7
:1031F000518F370600C47D168507718FEA073706A1
:10320000003CF18FD98FDCC299E0EFF0BF8C1385C1
:10321000C1A18A04AA9423A0240173100430B240EF
:10322000224492444A850249410182809386C1A189
:103230001316250099CDB707101A12053E951841AF
:103240005C413E07E983BD8B81EBBA873387C600BB
:103250001CC3B29688428280FD17B357F700FDB7B2
:1032600081C585456FF09FFC931745003707101AFD
:103270003E975C43AA8663CB07021047B70500F070
:103280009385F53F6D8EB7255000938505804D8E53
:1032900010C75047B70501FCFD156D8EB7054C01F1
:1032A0004D8E50C7370600C0D18F5CC31386C1A1B5
:1032B000139526002A960C421387C1A189C9411192
:1032C0000146368506C6EFF0FFEE19CDF52193D6FF
:1032D000A701C207C183BD8ABE0781C6FD16B3D749
:1032E000D7002A971CC38280B240410182800547E3
:1032F000AA87630AE50009476304E500014599E3ED
:1033000003A5C1A182809387C1A188478280B7B7F6
:10331000101A93860702054798C21387070108C34E
:103320001307700998C301458280B7A7101A9387C5
:10333000478088C38280736504308280B7A7101AE3
:103340007D579387878098C38280B767101A7D570F
:103350009386470098C29386870098C29386C700D9
:1033600098C29386070198C29386470198C29386B4
:10337000870198C29386C70198C29387070298C3B2
:1033800082808280B736001C8147138681A2938693
:1033900026389305800A13972700329714C38507B0
:1033A000E39BB7FE85473395A700B7A7101A93870D
:1033B000478088C3828093172500138581A23E959C
:1033C0000CC1828093172500138581A23E95B737E3
:1033D000001C938727381CC18280011106CE22CCA5
:1033E00073740430F32720346C0063DE0700EFE0D1
:1033F0008F83B24799C3EFE00FF873100430F240A7
:10340000624405618280EFE00F82C5BF011106CEE4
:1034100022CC73740430F327203463DC070070007F
:103420008145EFE0EFB873100430F240624405616B
:103430008280FD55EFE0AF9EFDB7411122C406C664
:1034400085472A841CC92302050481451305F00F12
:10345000EFD03FD348D819C9B737001C9387C7406E
:103460001CDCB737001C9387A73D5CDC8547A303B2
:10347000F404FD57B240A302F40422852244410122
:103480008280830775049DC7411122C406C62A8421
:10349000A30305045C5999CB485919C5EFE0CFC186
:1034A000232C0402232E0402232A0402B2402244C5
:1034B000410182808280411122C406C62A8483474A
:1034C0004404E207E18799C722852244B2404101C2
:1034D0006FF03FFB5C58E5D71C5C48588297C5B736
:1034E000411122C42A84485906C619C15C5C8297DE
:1034F00085472302F404B2402244410182804CC13A
:103500008280457168102326111C2324811C2322EC
:10351000911C2320211D232E311B232C411B02CC67
:10352000230E0100EFF02FDFB7979800938707680D
:103530003ED66C109307001008102318F10202DA2F
:1035400002DC231E0102EFF09FFB0810EFF0AFDE5C
:103550000DC17D548320C11C22850324811C83243A
:10356000411C0329011C8329C11B032A811B79618A
:1035700082802A843795001C13054589EF00701559
:1035800013050010EFF0AFCE23AAA1DA938441DB3C
:1035900069D13795001C1305858AEF009013130538
:1035A0000010EFF0CFCC23A6A1DA1389C1DA55D1F0
:1035B0003795001C1305C58BEF00B01113050010E3
:1035C000EFF0EFCA23A8A1DA138A01DB59D13795AE
:1035D000001C1305058DEF00D00F814793060010E6
:1035E00098403E972300F7008507E39BD7FE379569
:1035F000001C99491305058E230B3101EF00700D56
:10360000A800230B3101EFF05FE32A8781462146B2
:10361000930561010810EFF0CFD2C9470809230CC8
:10362000F100EFF09FE12A878546130680022C08FF
:103630000810EFF00FD18C40A809B799001C2EC6D6
:10364000EFF0BFDFB24505662A8781461306068084
:103650000810EFF00FCF9547230BF100FD57A30B98
:10366000F10085462146930561010810EFF0AFCDCA
:1036700081462146930571010810EFF04FD0834534
:1036800071011385098F93F5F50FEF00A072834741
:103690007101858BF9F7CD470812230CF100EFF08B
:1036A000DFD92A878546130680022C080810EFF020
:1036B0004FC983250900A8122EC6EFF01FD8B245C6
:1036C00005662A878146130606800810EFF0EFCAC8
:1036D000A800EFF05FDE0809EFF0FFDDA809EFF0CA
:1036E0009FDD0812EFF03FDDA812EFF0DFDC379529
:1036F000001C13054590EF00C07D0325090003A8B9
:10370000040083280A008145930700103307B500A1
:103710003306B8008346070003460600638FC600E1
:103720003383B800034303006309C3003795001CCB
:103730001305C591EF00006829BD8505E398F5FCE8
:103740003795001C13054595EF00A0780810EFF0A1
:10375000EFBE09B5411106C6EFF0BFDA65280111C9
:1037600006CEEFF08FB23795001C13054596EF009B
:103770004076B795001C3735001C7C000547814614
:1037800013060019938585981305457502C6EFE069
:10379000DF8B8547630AF5003795001C13050599F3
:1037A000EF0020737D55BD20F3670430EFE0FFABE1
:1037B000F2400145056182804111194506C6EF00BE
:1037C000D00A0545EFF02F9FB797001C83A747C489
:1037D0004111328806C6AA882E87C8473686630EEE
:1037E0000800B797001C9387079AB795001CC686F8
:1037F0009385059B5920EFF03FFC3798001C9307F9
:10380000C89A1308C89AD5B7AA85814601460145CA
:103810006F0070264111B747001C22C406C693876B
:10382000272F2A8481C78145EF00B02CB797001C51
:1038300003A587BD1C5591C382972285EFF0AF97F2
:103840004111B797001C22C43794001C1387C7BDD1
:103850001304C4BD198C26C206C609849384C7BD4F
:1038600011E4B24022449244410182807D149317B6
:103870002400A6979C438297E5B739713EDAB79743
:10388000001C32D42E86AA8503A547C436D6341030
:1038900006CE3AD842DC46DE36C68D2CF240216197
:1038A0008280411122C426C23794001CB794001CA8
:1038B0009387C4BD1304C4BD1D8C4AC006C60984C9
:1038C0009384C4BD014963178902B794001C3794DF
:1038D000001C9387C4BD1304C4BD1D8C098493844C
:1038E000C4BD0149631D8900B2402244924402498B
:1038F000410182809C40050991048297E9B79C4070
:10390000050991048297F9BFB797001CAA8503A502
:1039100047C45DA8B797001CAA8503A547C409A0A2
:10392000DDC183A7C5FF011122CC06CE1384C5FFDC
:1039300063D307003E942AC6EFF0EF9283A781DBA2
:1039400032453A8691EB2322040023AC81DA6244AB
:10395000F24005616FF06F91637FF400144033070C
:10396000D4006396E7009843DC43369718C05CC0E8
:1039700023AC81DAE9BF3E87DC4399C3E37DF4FEE3
:1039800014433306D700631F86001040B29614C359
:103990003306D700E39DC7FA9043DC43B29614C3C5
:1039A0005CC375B76375C400B1471CC14DB7104007
:1039B000B306C4006396D7009443DC43B29614C0A8
:1039C0005CC040C369B78280011126CA9384350068
:1039D000F1984AC806CE22CC4EC6A104B1472A8926
:1039E00063F3F404B14463E2B4044A85EFF0AF87B3
:1039F00003A781DB938681DB3A8439E01384C1DB42
:103A00001C4089E781454A85D12B08C0A6854A8597
:103A1000F123FD59631A3507B1472320F9004A8580
:103A2000EFF0AF8431A0E3D004FCB1472320F900CC
:103A30000145F2406244D2444249B2490561828064
:103A40001C40858F63CF07022D466376F6001CC0AD
:103A50003E9404C029A05C40631387029CC24A853F
:103A6000EFF0AF801305B40093074400619933076A
:103A7000F540E300F5FC3A94898F1CC05DBF5CC340
:103A8000F9BF2287404095BF130435007198E302C7
:103A900085FCB305A4404A859123E31C35FBADBFEB
:103AA0001C46FD171CC663D90700184E63C5E70006
:103AB000A9476393F500D5AB1C422E8513871700E9
:103AC00018C22380B7008280011122CC26CA4AC8BE
:103AD0004EC652C406CE2A89AE893284B304D600BB
:103AE0007D5A63149400014511A8834504004E8655
:103AF0004A85EFF0FFFA0504E31545FFF240624402
:103B0000D2444249B249224A05618280717122D56C
:103B100026D34AD14ECF06D752CD56CB5AC95EC70F
:103B200062C566C36AC1EEDEAA89AE843289368474
:103B300009C51C4D99E3EF00F02EB797001C938741
:103B400047A16396F40E83A4490083D7C400A18BD8
:103B5000638107109C48638E070E93070002A3043D
:103B6000F1029307000302D22305F10222C6930C4F
:103B70005002379B001CB79B001C379D001C374C24
:103B8000001C930A00004A848347040099C363978A
:103B9000970FB30D2441630E2401EE864A86A68555
:103BA0004E85EFF07FF2FD576305F51E9257EE97B5
:103BB0003ED283470400638E071CFD57130914008F
:103BC00002C802CE3ECA02CCA309010482D4854DAC
:103BD00083450900154613050B9EEF00104CC247A4
:103BE0001304190051ED13F7070109C71307000269
:103BF000A309E10413F7870009C71307B002A3095B
:103C0000E104834609001307A0026384E608F24733
:103C10004A8481462546294503470400930514003C
:103C2000130707FD637CE60AADCE3ECE9DA8B7978D
:103C3000001C938747A36395F40083A4890031B7E0
:103C4000B797001C9387479FE391F4F083A4C900C2
:103C5000EDBDA6854E85112BE30105F07D55BA50CB
:103C60002A549A540A59FA496A4ADA4A4A4BBA4BD0
:103C70002A4C9A4C0A4DF65D4D618280050429B7A5
:103C800013070B9E198D3395AD00C98F3EC822894D
:103C900081B7324793064700184336C66349070287
:103CA0003ACE034704009307E0026310F706034788
:103CB00014009307A002631BF702B247090413879D
:103CC00047009C433AC663C107023ECA3DA833077A
:103CD000E04093E727003ACE3EC8E1B7B387A7029A
:103CE0002E848546BA970DBFFD57C5B7050402CA95
:103CF0008146814725462945034704009305140062
:103D0000130707FD637FE604E9F2834504000D46CF
:103D100013858B9EEF00703801CD93878B9E1D8D90
:103D200093070004B397A700424505045D8D2AC898
:103D30008345040019461305CD9E1309140023047E
:103D4000B102EF00903531CD63970A024247B24786
:103D50001377071009CF91073EC69257D2973ED2EC
:103D60001DB5B387A7022E848546BA9771B79D0704
:103D7000E19BA107D5B7780093068CAC26860C088A
:103D80004E8597000000E7000000FD572A8AE316E1
:103D9000F5FC83D7C40093F70704E39107EC1255B1
:103DA0007DBD780093068CAC26860C084E85EF000E
:103DB0003041E1BF5D71BEC2B797001C22D42A8496
:103DC00003A547C406D62EDA32DC36DEBAC0C2C43A
:103DD000C6C619C51C4D89E72AC6EF00B004324596
:103DE0000C455418228636CEEFF05FD2B2502254E2
:103DF00061618280011126CA4AC806CE22CC4EC615
:103E000052C4AA842E8909C51C4D99E3EF00900184
:103E10009C4C804481E72685EF00D000B797001CBA
:103E2000938747A1631CF402C0408357C400A18B51
:103E3000B1C71C48A1C7FD59294A1C448345090044
:103E4000FD17B1E91CC463DE07062286A945268555
:103E5000A92CFD576308F502294535A0B797001C2A
:103E6000938747A36314F4008044C1B7B797001C3D
:103E70009387479FE31BF4FAC04445BFA28526857C
:103E8000ED2455D97D55F2406244D2444249B249AD
:103E9000224A056182801CC4050963D70700184CBB
:103EA00063CBE700638945011C401387170018C0E6
:103EB0002380B70059B722862685C52AE31F35F728
:103EC000D1B71C401387170018C029472380E7008B
:103ED00061B7B797001CAA8503A547C46FF09FF18F
:103EE000411122C42E848C4126C206C6AA8491C1E7
:103EF000C53FA2852244B2402685924441016FF01D
:103F00003FA2B797001C83A747C46388A70C5C51E6
:103F1000011122CC06CE26CA4AC84EC62A8481CFB9
:103F2000DC47814413090008D9E35C508C4381C508
:103F30002285EFF0FF9E4C4881C52285EFF05F9E01
:103F40004C5081C52285EFF0BF9D0C5C81C5228558
:103F5000EFF01F9D4C5C81C52285EFF07F9C2C40CB
:103F600081C52285EFF0DF9B6C4C81C52285EFF087
:103F70003F9B2C4C81C52285EFF09F9A4C5881C500
:103F80002285EFF0FF991C4CB1C31C542285829707
:103F90002C448DCD22856244F240D2444249B2493C
:103FA00005616FF0FFF3A6958C4191E991045C5097
:103FB000CC47E39A24FF2285EFF09F96BDB783A9F3
:103FC00005002285EFF0DF95CE85C5B7F24062444B
:103FD000D2444249B249056182808280411122C4A3
:103FE00026C22A842E8506C623A001DCEFE03FA569
:103FF000FD576316F50083A701DC91C31CC0B240D6
:104000002244924441018280011122CC06CEFD4718
:104010002A8463F9B700D9471CC17D55F240624438
:10402000056182807C412E8691C713972500BA973F
:10403000984319EB228532C6BD20AA8522856244A9
:104040003246F24005610DA885460145E308D7FCDC
:10405000FD566316D700D9471CC00545C1B72E854C
:1040600023A007000297014555BFB797001CAA85FA
:1040700003A547C46FF05FF9411122C426C22A8408
:104080002E85B28506C623A001DCEFE07F95FD57A3
:104090006316F50083A701DC91C31CC0B240224423
:1040A0009244410182806FE0FF92011122CC26CA26
:1040B0004AC806CE4EC6AA842E89328401C51C4D3C
:1040C00091E38D23B797001C938747A16319F406EA
:1040D000C0401C4C1CC48357C400A18BC9C31C48DE
:1040E000BDCF1C4808409379F90F1379F90F1D8D46
:1040F0005C486346F500A285268521212DE51C44F8
:104100000505FD171CC41C401387170018C0238029
:1041100037015C486389A7008357C400858B81CB36
:10412000A9476316F900A2852685E12E0DEDF24020
:104130006244D244B2494A85424905618280B797B8
:10414000001C938747A36314F400804459B7B797C2
:10415000001C9387479FE31EF4F6C0449DBFA285D1
:10416000268521203DDD7D59D9B74111B797001C27
:1041700026C283A447C422C44AC006C62A892E8404
:1041800089C49C4C99E326857129B797001C9387B5
:1041900047A16317F402C0408317C40013970701B7
:1041A00093F687004183B5EA9376070195EA2547A0
:1041B0002320E90093E707042316F4007D5579A82E
:1041C000B797001C938747A36314F4008044E9B7B2
:1041D000B797001C9387479FE310F4FCC0446DBF62
:1041E000118B15C74C5891C9930744046385F5009A
:1041F0004A85EFF0EFF2232A04028357C4002322FA
:10420000040093F7B7FD2316F4001C481CC0835725
:10421000C40093E787002316F4001C4881EF8357FE
:10422000C4001307002093F707286385E700A285E1
:104230004A85E1238317C4001397070193F61700FB
:1042400041839DC2544823240400B306D04014CCBB
:104250001448014581E61377070829FFB24022443C
:10426000924402494101828093762700014691E2FF
:10427000504810C4F1BF83A741DCAA888DE31385A1
:1042800081CC23A2A1DC13030000938781CC6308B7
:104290000300832700002324F508938781CCD843AB
:1042A0007D487D556346E804638D080203A88708AE
:1042B0006300080413152700429510C1032308105A
:1042C00005463316E6003363C3002320681023201D
:1042D000D50889466397D80083264810558E232237
:1042E000C810930617000A07D4C3BA978CC70145B4
:1042F0008280797156CA5AC85EC666C206D622D472
:1043000026D24AD04ECE52CC62C46AC02A8BAE8A24
:10431000854C83A441DC138C41DC81CCC04083A953
:1043200084081309F4FF0A04338A89002694635031
:104330000902B250225492540259F249624AD24AB6
:10434000424BB24B224C924C024D45618280638CB1
:104350000A00639609007D19711A7114C9BF832779
:10436000CA07E39A57FFD8405C407D1763182703BC
:1043700023A22401EDD303AD44006388090083A682
:10438000091033972C01F98E89EE8297D840832744
:104390000C00E310A7F9E380F4FCA5BF232204007E
:1043A000D1BF83A649108325CAFF758F01E75A85BF
:1043B0008297E9BF2E858297D1BF83D7C5000111AF
:1043C00022CC26CA06CE4AC84EC613F78700AA8456
:1043D0002E847DE3D8416347E000B8416344E000A8
:1043E00001457DA858546DDF856603A90400F58F4B
:1043F00023A00400ADCF68488357C400918B99C7B0
:104400005C401D8D5C5899C33C401D8D5C540C5024
:104410002A86814626858297FD570357C400631D6F
:10442000F5009440F54763E4D708B70740208507B7
:10443000B3D7D700858BA5CF1C48232204001CC00E
:1044400085677D8F19C7FD576314F5009C4091E384
:1044500068C84C5823A02401C1D593074404638540
:10446000F5002685EFF0CFCB232A040295BF0C5030
:104470008546014626850297FD57E31FF5F69C40C9
:10448000A5DF75476385E70059476395E70023A0DB
:104490002401B9B78357C40093E707042316F40037
:1044A000F2406244D2444249B249056182801367B6
:1044B00007042316E400EDB783A90501E38209F29E
:1044C00003A905008D8B23A035013309394101472C
:1044D00091E3D84918C4E35520F11C540C50CA8606
:1044E0004E8626858297634AA0008357C4007D5577
:1044F00093E707042316F40065B7AA993309A94086
:10450000D9BF9C49A5C3011122CC06CE2A8411C56E
:104510001C4D81E72EC63922B245B797001C938700
:1045200047A1639CF5004C408397C5009DC7228539
:104530006244F24005616FF05FE8B797001C938713
:1045400047A36394F5000C44C5B7B797001C938745
:10455000479FE39BF5FC4C44C1BFF24062440145D8
:104560000561828001458280411122C406C62A84E9
:104570002316B5002317C5002320050023220500BC
:10458000232405002322050623280500232A0500ED
:10459000232C0500214681451305C505EFC0FF8D7D
:1045A000B757001C9387E7C25CD0B757001C9387AE
:1045B000E7C51CD4B757001C9387C7CA5CD4B7574C
:1045C000001C938727CEB24000D01CD82244410162
:1045D0008280B745001C93852550B1AA411126C29F
:1045E000130680069384F5FFB384C4024AC02E8963
:1045F00022C406C693854407EFF00FBD2A8401CD7F
:104600002320050023222501310508C413868406D2
:104610008145EFC09F86B2402285224492440249E0
:10462000410182801C4DB5E74111B747001C22C4EF
:1046300006C69387275D1CD5B797001C83A787BD47
:104640002324050423260504232805042A8463144F
:10465000F50085471CCD2285352848C022851D28B8
:1046600008C42285052848C4484001469145EFF01A
:10467000BFEF08440546A545EFF01FEF4844094643
:10468000C945EFF07FEE8547B2401CCC2244410182
:10469000828082804111B797001C26C283A487BD07
:1046A0004AC006C69C4C22C42A8981E72685EFF0C1
:1046B0007FF7938484048044DC40FD1763D60700B1
:1046C0009C40B9CF8440C5BF0317C40039E7C17708
:1046D0008507232204062320040023220400232428
:1046E00004005CC423280400232A0400232C0400B3
:1046F000214681451305C405EFC02FF8232A040283
:10470000232C04022324040423260404B24022851B
:10471000224492440249410182801304840671BFFD
:1047200091454A85EFF09FEB88C02A8441FDB1474F
:104730002320F900E1BF797122D44AD04ECE52CC69
:104740005AC85EC606D626D256CA2A892E8A1304AD
:1047500085048149054BFD5B0444832A4400FD1A0E
:1047600063D00A0200406DF8B250225492540259AC
:10477000624AD24A424BB24B4E85F2494561828031
:1047800083D7C400637BFB008397E40063877701D2
:10479000A6854A85029AB3E9A90093848406C1B725
:1047A0005971CAD02E898395E500A2D4A6D286D6A7
:1047B0003284B68463DC05008317C90023A004009B
:1047C00093F707088DE39307004005A030009D2B69
:1047D000E34405FE3247BD67F98F7977BA9793B7FF
:1047E00017009CC0CDB793070004B6501CC02654D8
:1047F0009654065901456561828083D7C500011131
:1048000022CC06CE26CA4AC8898B2E8489CF93072C
:1048100074041CC01CC885475CC8F2406244D24482
:10482000424905618280740030002A89EFF05FF709
:10483000A245AA844A85EFF02F9901ED8317C400A1
:1048400013F7072079FBF19B93E727002316F40069
:104850007DBFB747001C9387275D2324F902835748
:10486000C40008C008C893E707082316F400A2474D
:104870005CC8B24789CF8315E4004A85DD2901C9A8
:104880008357C400F19B93E717002316F4000355E8
:10489000C400C98C2316940049B793F5F50F2A96E6
:1048A0006314C5000145828083470500E38DB7FE90
:1048B0000505FDB7797152CC9C493A8A984522D4B6
:1048C00026D24ECE56CA06D64AD05AC85EC6AA8945
:1048D0002E84B284B68A63D3E700BA879CC00347AC
:1048E000340419C385079CC01C4093F7070281C795
:1048F0009C4089079CC00329040013796900631A4E
:104900000900130B9401FD5B5C449840998F634C44
:10491000F90483473404B336F0001C4093F70702D0
:10492000A5EB13063404D6854E85029AFD57630322
:10493000F5041C4011469840998B54448144639778
:10494000C700B384E64063D3040081441C44184884
:104950006354F700998FBE94014969047D5B6398A5
:104960002405014509A885465A86D6854E85029AB2
:10497000631E75017D55B250225492540259F2497A
:10498000624AD24A424BB24B456182800509ADBFB3
:104990003307D40013060003A301C70403475404DC
:1049A00093871600A2978906A381E7049DBF8546D9
:1049B0002286D6854E85029AE30E65FB050945B72A
:1049C000797122D426D24AD04ECE06D652CC56CABF
:1049D0005AC883C8850193078007AA842E84328928
:1049E000B68963EE1701930720069386350463EDBD
:1049F00017016383081C93078005638AF812930AE2
:104A00002404230114050DA89387D8F993F7F70F11
:104A10005546E366F6FE3796001C8A071306C6A7BE
:104A2000B2979C4382871C43938A25049386470050
:104A30009C4314C32381F50485475DA29C41084330
:104A400013F60708930545000DC21C410CC33798A7
:104A5000001C63D807001307D002B307F040A3017E
:104A6000E404130848A52947A1A013F607041C4134
:104A70000CC371DEC207C187D9BF90411C431375B7
:104A800006089385470001C50CC39C4339A01376E3
:104A900006040CC37DDA83D707003798001C130780
:104AA000F006130848A56383E80E2947A301040410
:104AB000504010C4634506000C40ED990CC099E3CA
:104AC000B68A19CEB68A33F6E702FD1A4296034635
:104AD00006002380CA003E86B3D7E702E375E6FEF0
:104AE000A147631EF7001C40858B91CB58401C48A2
:104AF00063C7E70093070003A38FFAFEFD1AB3868E
:104B0000564114C84E87CA867000A2852685EFF0EC
:104B10007FDA7D5A631A450D7D55B2502254925466
:104B20000259F249624AD24A424B45618280379823
:104B3000001CA3821505130848A510400C431375EB
:104B400006089C41910505CD0CC31377160001C7DB
:104B50001366060210C04147B1FB10401376F6FD04
:104B600010C0A9B79C4193E707029CC19307800737
:104B70003798001CA302F404130888A67DBF1375A0
:104B800006040CC379D1C207C183C1B7214739BF1D
:104B900090411C43CC4913780608138547006306EF
:104BA000080008C39C438CC301A808C313760604FD
:104BB0009C4375DA2390B70023280400B68A99B77E
:104BC0001C43D04181459386470014C383AA070044
:104BD0005685EFF09FCC01C53305554148C05C4078
:104BE0001CC8A301040439BF14485686CA8526850B
:104BF0008299E30345F31C40898B8DE7B247484413
:104C0000E35DF5F03E8511BF85465686CA8526854B
:104C10008299E30365F1050A5C443247998FE345C5
:104C2000FAFEE9BF014A930A94017D5BF5B7411191
:104C300022C42E848395E50006C6512A63490500E7
:104C40007C48AA977CC8B2402244410182808357A5
:104C5000C4007D777D17F98F2316F400EDB783D755
:104C6000C500011122CC26CA4AC84EC606CE93F70B
:104C70000710AA842E843289B68991C78395E500EE
:104C800089460146292A8357C4007D777D17F98F0D
:104C90008315E4002316F4006244F240CE864A866F
:104CA000B24942492685D24405613DA8411122C43A
:104CB0002E848395E50006C6DD20FD570357C4000A
:104CC000631BF500FD77FD17F98F2316F400B24042
:104CD0002244410182808567D98F2316F40068C879
:104CE000FDB78395E5000DA8411122C426C22A8490
:104CF0002E85B285368606C623A001DCEFD07FCF95
:104D0000FD576316F50083A701DC91C31CC0B240B8
:104D10002244924441018280411122C426C22A8445
:104D20002E8506C623A001DCEFD0BFC8FD57631651
:104D3000F50083A701DC91C31CC0B2402244924419
:104D400041018280411122C426C22A842E85B28567
:104D500006C623A001DCEFD07FC7FD576316F50020
:104D600083A701DC91C31CC0B2402244924441019C
:104D70008280411122C426C22A842E8506C623A021
:104D800001DCEFD07FC5FD576316F50083A701DC7A
:104D900091C31CC0B240224492444101828041111F
:104DA00022C426C22A842E85B285368606C623A052
:104DB00001DCEFD09FC3FD576316F50083A701DC2C
:104DC00091C31CC0B24022449244410182804111EF
:104DD00022C426C22A842E85B285368606C623A022
:104DE00001DCEFD0DFC0FD576316F50083A701DCBF
:104DF00091C31CC0B2402244924441018280000011
:1080000070785175657565002F736372617463686C
:108010002F6E6F726C616E646F2F70756C702D6F48
:1080200070656E2F70756C702D73646B2F72746F2A
:10803000732F6672656572746F732F6B65726E65F0
:108040006C2F71756575652E63000000757851752C
:108050006575654C656E677468203E202820554222
:10806000617365547970655F7420292030000000C9
:1080700075784D6178436F756E7420213D20300016
:108080007578496E697469616C436F756E74203CD4
:108090003D2075784D6178436F756E740000000067
:1080A000212820282070764974656D546F517565BC
:1080B0007565203D3D202828766F6964202A293087
:1080C000292029202626202820707851756575657D
:1080D0002D3E75784974656D53697A6520213D2080
:1080E00028205542617365547970655F742029209A
:1080F0003055202920290000212820282078436F8E
:108100007079506F736974696F6E203D3D2028202F
:10811000282042617365547970655F74202920328C
:108120002029202920262620282070785175657561
:10813000652D3E75784C656E67746820213D203151
:1081400020292029000000002128202820785461BF
:10815000736B4765745363686564756C65725374BB
:108160006174652829203D3D202820282042617324
:1081700065547970655F74202920302029202920DA
:108180002626202820785469636B73546F576169E1
:108190007420213D2030202920290000707851755D
:1081A0006575652D3E75784974656D53697A6520EE
:1081B0003D3D20300000000021282028207078510B
:1081C000756575652D3E706348656164203D3D2091
:1081D0002828766F6964202A29302920292026261C
:1081E000202820707851756575652D3E752E785361
:1081F000656D6170686F72652E784D75746578482D
:108200006F6C64657220213D202828766F69642098
:108210002A293029202920290000000028207078F0
:108220005175657565202900212820282028207097
:10823000764275666665722029203D3D20282876A5
:108240006F6964202A293029202920262620282009
:1082500028207078517565756520292D3E757849FF
:1082600074656D53697A6520213D2028205542614F
:108270007365547970655F7420292030552029205A
:108280002900000078496E6865726974616E6365E3
:108290004F63637572726564203D3D20282028205D
:1082A00042617365547970655F74202920302029FC
:1082B000000000002128202820707642756666653F
:1082C00072203D3D202828766F6964202A293029B4
:1082D0002029202626202820707851756575652D67
:1082E0003E75784974656D53697A6520213D202873
:1082F000205542617365547970655F742029203080
:108300005520292029000000785175657565526552
:108310006365697665000000785175657565476924
:10832000766546726F6D495352000000785175654D
:10833000756547656E6572696353656E6446726FF5
:108340006D495352000000007851756575654765A9
:108350006E6572696353656E6400000078517565DF
:108360007565437265617465436F756E74696E6798
:1083700053656D6170686F726500000078517565B6
:10838000756547656E657269634372656174650002
:1083900078517565756547656E6572696352657379
:1083A0006574000076517565756544656C65746526
:1083B00000000000785175657565526563656976E2
:1083C0006546726F6D495352000000007851756523
:1083D000756553656D6170686F726554616B65009A
:1083E000785461736B0000002F736372617463686B
:1083F0002F6E6F726C616E646F2F70756C702D6F65
:1084000070656E2F70756C702D73646B2F72746F46
:10841000732F6672656572746F732F6B65726E650C
:108420006C2F7461736B732E63000000282028206A
:1084300028202820707844656C61796564546173E4
:108440006B4C69737420292D3E75784E756D62658D
:10845000724F664974656D73203D3D20282055425A
:10846000617365547970655F74202920302029205C
:108470003F202820282042617365547970655F741D
:10848000202920312029203A2028202820426173E9
:1084900065547970655F74202920302029202920B7
:1084A00029000000282028202628207078526561A5
:1084B00064795461736B734C697374735B20757862
:1084C000546F705072696F72697479205D20292031
:1084D000292D3E75784E756D6265724F66497465DB
:1084E0006D732029203E2030000000007078457612
:1084F000656E744C697374007078556E626C6F634E
:108500006B656454434200007078544342203D3D03
:1085100020707843757272656E7454434200000097
:1085200070785443422D3E75784D75746578657347
:1085300048656C6400000000707854434220213D7F
:1085400020707843757272656E7454434200000067
:1085500049444C45000000007852657475726E20E5
:10856000213D2028202D31202900000075785363FB
:10857000686564756C657253757370656E64656467
:1085800000000000707854696D654F75740000003C
:1085900070785469636B73546F576169740000009D
:1085A000765461736B506C6163654F6E4576656E92
:1085B000744C697374000000765461736B5377696F
:1085C000746368436F6E74657874000078546173E7
:1085D0006B496E6372656D656E745469636B000000
:1085E000785461736B526573756D65416C6C0000F6
:1085F000765461736B537461727453636865647508
:108600006C657200765461736B5072696F72697435
:1086100079446973696E68657269744166746572DC
:1086200054696D656F757400785461736B5072692D
:108630006F72697479446973696E686572697400F0
:10864000785461736B436865636B466F7254696DF0
:10865000654F757400000000785461736B52656D4E
:108660006F766546726F6D4576656E744C6973748E
:1086700000000000765461736B506C6163654F6E4F
:108680004576656E744C6973745265737472696370
:1086900074656400546D7251000000007852657476
:1086A00075726E002F736372617463682F6E6F72E0
:1086B0006C616E646F2F70756C702D6F70656E2FAE
:1086C00070756C702D73646B2F72746F732F66727C
:1086D000656572746F732F6B65726E656C2F74694C
:1086E0006D6572732E630000546D722053766300C3
:1086F0007854696D6572000078526573756C74000A
:108700002820707854696D65722D3E7854696D65C6
:1087100072506572696F64496E5469636B73203E71
:1087200020302029000000007828001C7828001C38
:108730007828001CCA28001CD628001C0A29001C06
:108740007828001C7828001CCA28001CD628001C89
:108750007854696D657247656E65726963436F6DC4
:108760006D616E640000000070727650726F636518
:1087700073735265636569766564436F6D6D616E91
:108780006473000070727650726F6365737345781E
:10879000706972656454696D657200007072765319
:1087A000776974636854696D65724C69737473009A
:1087B0007854696D657243726561746554696D655D
:1087C000725461736B00000028207849535253742F
:1087D00061636B546F702026202820307830303051
:1087E0006620292029203D3D203000002F73637230
:1087F000617463682F6E6F726C616E646F2F707539
:108800006C702D6F70656E2F70756C702D73646B4E
:108810002F72746F732F6672656572746F732F6B2E
:1088200065726E656C2F706F727461626C652F4734
:1088300043432F524953432D562F706F72742E634A
:108840000000000078506F72745374617274536347
:10885000686564756C6572006572726F723A20614A
:1088600070706C69636174696F6E206D616C6C6FA0
:1088700063206661696C6564000000006572726F58
:10888000723A20737461636B206F766572666C6FE9
:10889000770000006D616C6C6F63207478206275E6
:1088A00066666572000000006D616C6C6F6320721B
:1088B0007820627566666572203100006D616C6CAF
:1088C0006F632072782062756666657220320000E0
:1088D00074782062756666657220696E697400003E
:1088E0006173796E63206373206175746F0000009B
:1088F0005749502052656769737465723A20256440
:108900000A0000007374617274696E672065727288
:108910006F7220636865636B0000000046697273C4
:1089200074206572726F7220617420696E6465785C
:108930002025642C20657870656374656420307828
:1089400025782C20676F742030782578206174207A
:1089500025700A00546573742073756363657373BF
:10896000000000000A0A09202A2A2A2046726565AA
:1089700052544F532048656C6C6F20576F726C6473
:10898000202A2A2A200A00006D61696E000000007A
:108990006D61696E206973204E554C4C202100009A
:1089A0002C2066756E6374696F6E3A2000000000BB
:1089B000617373657274696F6E202225732220665D
:1089C00061696C65643A2066696C652022257322B2
:1089D0002C206C696E65202564257325730A0000C0
:1089E000232D302B20000000686C4C006566674525
:1089F00046470000000000000000000000000000EA
:108A00000000000000000000000000000000000066
:108A10000000000000000000000000000000000056
:108A20000000000000000000000000000000000046
:108A30000000000000000000000000000000000036
:108A40000000000000000000000000000000000026
:108A50000000000030313233343536373839414286
:108A60004344454600000000303132333435363758
:108A7000383961626364656600000000264A001CA4
:108A80003C4A001CFE49001CFE49001CFE49001C1B
:108A9000FE49001C3C4A001CFE49001CFE49001C0B
:108AA000FE49001CFE49001C904B001C7A4A001C29
:108AB000644B001CFE49001CFE49001CC04B001CFE
:108AC000FE49001C7A4A001CFE49001CFE49001C9D
:108AD0006C4B001C000102020303030304040404A2
:108AE000040404040505050505050505050505053A
:108AF000050505050606060606060606060606061A
:108B00000606060606060606060606060606060605
:108B100006060606070707070707070707070707E9
:108B200007070707070707070707070707070707D5
:108B300007070707070707070707070707070707C5
:108B400007070707070707070707070707070707B5
:108B50000707070708080808080808080808080899
:108B60000808080808080808080808080808080885
:108B70000808080808080808080808080808080875
:108B80000808080808080808080808080808080865
:108B90000808080808080808080808080808080855
:108BA0000808080808080808080808080808080845
:108BB0000808080808080808080808080808080835
:108BC0000808080808080808080808080808080825
:048BD0000808080881
:048BD400B099011C37
:048BD800DC8B001C16
:108BDC0000000000148A001C348A001CF489001C5C
:108BEC000000000000000000000000000000000079
:108BFC000000000000000000000000000000000069
:108C0C000000000000000000000000000000000058
:108C1C000000000000000000000000000000000048
:108C2C000000000000000000000000000000000038
:0C8C3C00B091001C80F0FA02DC8B001CE0
:1091B00000000000000000000000000000000000AF
:1091C000000000000000000000000000000000009F
:1091D000000000000000000000000000000000008F
:1091E000000000000000000000000000000000007F
:020000041C01DD
:040000051C00088053
:00000001FF
